{
  "_format": "hh-sol-artifact-1",
  "contractName": "CommitRevealVoting",
  "sourceName": "contracts/CommitRevealVoting.sol",
  "abi": [
    {
      "inputs": [
        {
          "internalType": "uint256",
          "name": "commitDuration",
          "type": "uint256"
        },
        {
          "internalType": "uint256",
          "name": "revealDuration",
          "type": "uint256"
        }
      ],
      "stateMutability": "nonpayable",
      "type": "constructor"
    },
    {
      "anonymous": false,
      "inputs": [
        {
          "indexed": true,
          "internalType": "address",
          "name": "voter",
          "type": "address"
        }
      ],
      "name": "VoteCommitted",
      "type": "event"
    },
    {
      "anonymous": false,
      "inputs": [
        {
          "indexed": true,
          "internalType": "address",
          "name": "voter",
          "type": "address"
        },
        {
          "indexed": false,
          "internalType": "bool",
          "name": "vote",
          "type": "bool"
        }
      ],
      "name": "VoteRevealed",
      "type": "event"
    },
    {
      "anonymous": false,
      "inputs": [
        {
          "indexed": false,
          "internalType": "uint256",
          "name": "yesVotes",
          "type": "uint256"
        },
        {
          "indexed": false,
          "internalType": "uint256",
          "name": "noVotes",
          "type": "uint256"
        }
      ],
      "name": "VotingEnded",
      "type": "event"
    },
    {
      "inputs": [],
      "name": "commitDeadline",
      "outputs": [
        {
          "internalType": "uint256",
          "name": "",
          "type": "uint256"
        }
      ],
      "stateMutability": "view",
      "type": "function"
    },
    {
      "inputs": [
        {
          "internalType": "bytes32",
          "name": "hashedVote",
          "type": "bytes32"
        }
      ],
      "name": "commitVote",
      "outputs": [],
      "stateMutability": "nonpayable",
      "type": "function"
    },
    {
      "inputs": [
        {
          "internalType": "address",
          "name": "",
          "type": "address"
        }
      ],
      "name": "commitments",
      "outputs": [
        {
          "internalType": "bytes32",
          "name": "",
          "type": "bytes32"
        }
      ],
      "stateMutability": "view",
      "type": "function"
    },
    {
      "inputs": [
        {
          "internalType": "bool",
          "name": "vote",
          "type": "bool"
        },
        {
          "internalType": "string",
          "name": "keyword",
          "type": "string"
        }
      ],
      "name": "computeHash",
      "outputs": [
        {
          "internalType": "bytes32",
          "name": "",
          "type": "bytes32"
        }
      ],
      "stateMutability": "pure",
      "type": "function"
    },
    {
      "inputs": [],
      "name": "currentPhase",
      "outputs": [
        {
          "internalType": "enum CommitRevealVoting.Phase",
          "name": "",
          "type": "uint8"
        }
      ],
      "stateMutability": "view",
      "type": "function"
    },
    {
      "inputs": [],
      "name": "endVoting",
      "outputs": [],
      "stateMutability": "nonpayable",
      "type": "function"
    },
    {
      "inputs": [
        {
          "internalType": "address",
          "name": "voter",
          "type": "address"
        }
      ],
      "name": "getCommitment",
      "outputs": [
        {
          "internalType": "bytes32",
          "name": "",
          "type": "bytes32"
        }
      ],
      "stateMutability": "view",
      "type": "function"
    },
    {
      "inputs": [],
      "name": "getCurrentBlockTimestamp",
      "outputs": [
        {
          "internalType": "uint256",
          "name": "",
          "type": "uint256"
        }
      ],
      "stateMutability": "view",
      "type": "function"
    },
    {
      "inputs": [],
      "name": "getCurrentPhase",
      "outputs": [
        {
          "internalType": "string",
          "name": "",
          "type": "string"
        }
      ],
      "stateMutability": "view",
      "type": "function"
    },
    {
      "inputs": [],
      "name": "noVotes",
      "outputs": [
        {
          "internalType": "uint256",
          "name": "",
          "type": "uint256"
        }
      ],
      "stateMutability": "view",
      "type": "function"
    },
    {
      "inputs": [],
      "name": "revealDeadline",
      "outputs": [
        {
          "internalType": "uint256",
          "name": "",
          "type": "uint256"
        }
      ],
      "stateMutability": "view",
      "type": "function"
    },
    {
      "inputs": [
        {
          "internalType": "bool",
          "name": "vote",
          "type": "bool"
        },
        {
          "internalType": "string",
          "name": "keyword",
          "type": "string"
        }
      ],
      "name": "revealVote",
      "outputs": [],
      "stateMutability": "nonpayable",
      "type": "function"
    },
    {
      "inputs": [
        {
          "internalType": "address",
          "name": "",
          "type": "address"
        }
      ],
      "name": "revealed",
      "outputs": [
        {
          "internalType": "bool",
          "name": "",
          "type": "bool"
        }
      ],
      "stateMutability": "view",
      "type": "function"
    },
    {
      "inputs": [],
      "name": "yesVotes",
      "outputs": [
        {
          "internalType": "uint256",
          "name": "",
          "type": "uint256"
        }
      ],
      "stateMutability": "view",
      "type": "function"
    }
  ],
  "bytecode": "0x608060405234801561001057600080fd5b506040516117e83803806117e8833981810160405281019061003291906100c4565b814261003e9190610133565b600181905550806001546100529190610133565b60028190555060008060006101000a81548160ff0219169083600281111561007d5761007c610167565b5b02179055505050610196565b600080fd5b6000819050919050565b6100a18161008e565b81146100ac57600080fd5b50565b6000815190506100be81610098565b92915050565b600080604083850312156100db576100da610089565b5b60006100e9858286016100af565b92505060206100fa858286016100af565b9150509250929050565b7f4e487b7100000000000000000000000000000000000000000000000000000000600052601160045260246000fd5b600061013e8261008e565b91506101498361008e565b925082820190508082111561016157610160610104565b5b92915050565b7f4e487b7100000000000000000000000000000000000000000000000000000000600052602160045260246000fd5b611643806101a56000396000f3fe608060405234801561001057600080fd5b50600436106100ea5760003560e01c8063b5b47f421161008c578063e8fcf72311610066578063e8fcf72314610229578063f6a4dad014610259578063fa1026dd14610275578063fb286c65146102a5576100ea565b8063b5b47f42146101d1578063c3403ddf146101ef578063c6c49faf146101f9576100ea565b80633e858923116100c85780633e8589231461015b578063a2ff020914610177578063a3a40ea514610195578063b14b28a3146101b3576100ea565b8063055ad42e146100ef5780630f28c97d1461010d57806327c0583f1461012b575b600080fd5b6100f76102c3565b6040516101049190610c9e565b60405180910390f35b6101156102d4565b6040516101229190610cd2565b60405180910390f35b61014560048036038101906101409190610d5f565b6102dc565b6040516101529190610da7565b60405180910390f35b61017560048036038101906101709190610df8565b6102fc565b005b61017f610577565b60405161018c9190610cd2565b60405180910390f35b61019d61057d565b6040516101aa9190610eb5565b60405180910390f35b6101bb610649565b6040516101c89190610cd2565b60405180910390f35b6101d961064f565b6040516101e69190610cd2565b60405180910390f35b6101f7610655565b005b610213600480360381019061020e9190611038565b610776565b60405161022091906110a3565b60405180910390f35b610243600480360381019061023e9190610d5f565b6107a9565b60405161025091906110a3565b60405180910390f35b610273600480360381019061026e919061111e565b6107c1565b005b61028f600480360381019061028a9190610d5f565b610bd8565b60405161029c91906110a3565b60405180910390f35b6102ad610c21565b6040516102ba9190610cd2565b60405180910390f35b60008054906101000a900460ff1681565b600042905090565b60046020528060005260406000206000915054906101000a900460ff1681565b600080600281111561031157610310610c27565b5b81600281111561032457610323610c27565b5b0361037257600154421061036d576040517f08c379a0000000000000000000000000000000000000000000000000000000008152600401610364906111ca565b60405180910390fd5b610468565b6001600281111561038657610385610c27565b5b81600281111561039957610398610c27565b5b036103f55760015442101580156103b1575060025442105b6103f0576040517f08c379a00000000000000000000000000000000000000000000000000000000081526004016103e7906111ca565b60405180910390fd5b610467565b60028081111561040857610407610c27565b5b81600281111561041b5761041a610c27565b5b0361046657600254421015610465576040517f08c379a000000000000000000000000000000000000000000000000000000000815260040161045c906111ca565b60405180910390fd5b5b5b5b6000801b600360003373ffffffffffffffffffffffffffffffffffffffff1673ffffffffffffffffffffffffffffffffffffffff16815260200190815260200160002054146104ec576040517f08c379a00000000000000000000000000000000000000000000000000000000081526004016104e390611236565b60405180910390fd5b81600360003373ffffffffffffffffffffffffffffffffffffffff1673ffffffffffffffffffffffffffffffffffffffff168152602001908152602001600020819055503373ffffffffffffffffffffffffffffffffffffffff167fd8333eeb60b5f1fb9e6e2c3c665fb5ec81dee6d37fcd17dda27d169009d6c7eb60405160405180910390a25050565b60015481565b60606001544210156105c6576040518060400160405280600c81526020017f436f6d6d697420506861736500000000000000000000000000000000000000008152509050610646565b60025442101561060d576040518060400160405280600c81526020017f52657665616c20506861736500000000000000000000000000000000000000008152509050610646565b6040518060400160405280600581526020017f456e64656400000000000000000000000000000000000000000000000000000081525090505b90565b60025481565b60065481565b60025442101561069a576040517f08c379a0000000000000000000000000000000000000000000000000000000008152600401610691906112a2565b60405180910390fd5b6002808111156106ad576106ac610c27565b5b60008054906101000a900460ff1660028111156106cd576106cc610c27565b5b0361070d576040517f08c379a00000000000000000000000000000000000000000000000000000000081526004016107049061130e565b60405180910390fd5b60026000806101000a81548160ff0219169083600281111561073257610731610c27565b5b02179055507f04e400203b6647e7ab88412380ee2430174c77bd98021012d3647eb3fa63f63f60055460065460405161076c92919061132e565b60405180910390a1565b6000828260405160200161078b9291906113db565b60405160208183030381529060405280519060200120905092915050565b60036020528060005260406000206000915090505481565b6001600060028111156107d7576107d6610c27565b5b8160028111156107ea576107e9610c27565b5b03610838576001544210610833576040517f08c379a000000000000000000000000000000000000000000000000000000000815260040161082a906111ca565b60405180910390fd5b61092e565b6001600281111561084c5761084b610c27565b5b81600281111561085f5761085e610c27565b5b036108bb576001544210158015610877575060025442105b6108b6576040517f08c379a00000000000000000000000000000000000000000000000000000000081526004016108ad906111ca565b60405180910390fd5b61092d565b6002808111156108ce576108cd610c27565b5b8160028111156108e1576108e0610c27565b5b0361092c5760025442101561092b576040517f08c379a0000000000000000000000000000000000000000000000000000000008152600401610922906111ca565b60405180910390fd5b5b5b5b6000801b600360003373ffffffffffffffffffffffffffffffffffffffff1673ffffffffffffffffffffffffffffffffffffffff16815260200190815260200160002054036109b2576040517f08c379a00000000000000000000000000000000000000000000000000000000081526004016109a99061144f565b60405180910390fd5b600460003373ffffffffffffffffffffffffffffffffffffffff1673ffffffffffffffffffffffffffffffffffffffff16815260200190815260200160002060009054906101000a900460ff1615610a3f576040517f08c379a0000000000000000000000000000000000000000000000000000000008152600401610a36906114bb565b60405180910390fd5b6000848484604051602001610a5693929190611500565b60405160208183030381529060405280519060200120905080600360003373ffffffffffffffffffffffffffffffffffffffff1673ffffffffffffffffffffffffffffffffffffffff1681526020019081526020016000205414610aef576040517f08c379a0000000000000000000000000000000000000000000000000000000008152600401610ae690611576565b60405180910390fd5b6001600460003373ffffffffffffffffffffffffffffffffffffffff1673ffffffffffffffffffffffffffffffffffffffff16815260200190815260200160002060006101000a81548160ff0219169083151502179055508415610b6a5760056000815480929190610b60906115c5565b9190505550610b83565b60066000815480929190610b7d906115c5565b91905055505b3373ffffffffffffffffffffffffffffffffffffffff167ff3aa9f813c44e2d74cae7b324983b2f2bd443f8dc301e5f310b189264bd24d5186604051610bc99190610da7565b60405180910390a25050505050565b6000600360008373ffffffffffffffffffffffffffffffffffffffff1673ffffffffffffffffffffffffffffffffffffffff168152602001908152602001600020549050919050565b60055481565b7f4e487b7100000000000000000000000000000000000000000000000000000000600052602160045260246000fd5b60038110610c6757610c66610c27565b5b50565b6000819050610c7882610c56565b919050565b6000610c8882610c6a565b9050919050565b610c9881610c7d565b82525050565b6000602082019050610cb36000830184610c8f565b92915050565b6000819050919050565b610ccc81610cb9565b82525050565b6000602082019050610ce76000830184610cc3565b92915050565b6000604051905090565b600080fd5b600080fd5b600073ffffffffffffffffffffffffffffffffffffffff82169050919050565b6000610d2c82610d01565b9050919050565b610d3c81610d21565b8114610d4757600080fd5b50565b600081359050610d5981610d33565b92915050565b600060208284031215610d7557610d74610cf7565b5b6000610d8384828501610d4a565b91505092915050565b60008115159050919050565b610da181610d8c565b82525050565b6000602082019050610dbc6000830184610d98565b92915050565b6000819050919050565b610dd581610dc2565b8114610de057600080fd5b50565b600081359050610df281610dcc565b92915050565b600060208284031215610e0e57610e0d610cf7565b5b6000610e1c84828501610de3565b91505092915050565b600081519050919050565b600082825260208201905092915050565b60005b83811015610e5f578082015181840152602081019050610e44565b60008484015250505050565b6000601f19601f8301169050919050565b6000610e8782610e25565b610e918185610e30565b9350610ea1818560208601610e41565b610eaa81610e6b565b840191505092915050565b60006020820190508181036000830152610ecf8184610e7c565b905092915050565b610ee081610d8c565b8114610eeb57600080fd5b50565b600081359050610efd81610ed7565b92915050565b600080fd5b600080fd5b7f4e487b7100000000000000000000000000000000000000000000000000000000600052604160045260246000fd5b610f4582610e6b565b810181811067ffffffffffffffff82111715610f6457610f63610f0d565b5b80604052505050565b6000610f77610ced565b9050610f838282610f3c565b919050565b600067ffffffffffffffff821115610fa357610fa2610f0d565b5b610fac82610e6b565b9050602081019050919050565b82818337600083830152505050565b6000610fdb610fd684610f88565b610f6d565b905082815260208101848484011115610ff757610ff6610f08565b5b611002848285610fb9565b509392505050565b600082601f83011261101f5761101e610f03565b5b813561102f848260208601610fc8565b91505092915050565b6000806040838503121561104f5761104e610cf7565b5b600061105d85828601610eee565b925050602083013567ffffffffffffffff81111561107e5761107d610cfc565b5b61108a8582860161100a565b9150509250929050565b61109d81610dc2565b82525050565b60006020820190506110b86000830184611094565b92915050565b600080fd5b600080fd5b60008083601f8401126110de576110dd610f03565b5b8235905067ffffffffffffffff8111156110fb576110fa6110be565b5b602083019150836001820283011115611117576111166110c3565b5b9250929050565b60008060006040848603121561113757611136610cf7565b5b600061114586828701610eee565b935050602084013567ffffffffffffffff81111561116657611165610cfc565b5b611172868287016110c8565b92509250509250925092565b7f416374696f6e206e6f7420616c6c6f77656420696e2074686973207068617365600082015250565b60006111b4602083610e30565b91506111bf8261117e565b602082019050919050565b600060208201905081810360008301526111e3816111a7565b9050919050565b7f566f746520616c726561647920636f6d6d697474656400000000000000000000600082015250565b6000611220601683610e30565b915061122b826111ea565b602082019050919050565b6000602082019050818103600083015261124f81611213565b9050919050565b7f52657665616c207068617365206e6f742079657420656e646564000000000000600082015250565b600061128c601a83610e30565b915061129782611256565b602082019050919050565b600060208201905081810360008301526112bb8161127f565b9050919050565b7f566f74696e6720616c726561647920656e646564000000000000000000000000600082015250565b60006112f8601483610e30565b9150611303826112c2565b602082019050919050565b60006020820190508181036000830152611327816112eb565b9050919050565b60006040820190506113436000830185610cc3565b6113506020830184610cc3565b9392505050565b60008160f81b9050919050565b600061136f82611357565b9050919050565b600061138182611364565b9050919050565b61139961139482610d8c565b611376565b82525050565b600081905092915050565b60006113b582610e25565b6113bf818561139f565b93506113cf818560208601610e41565b80840191505092915050565b60006113e78285611388565b6001820191506113f782846113aa565b91508190509392505050565b7f4e6f20766f746520746f2072657665616c000000000000000000000000000000600082015250565b6000611439601183610e30565b915061144482611403565b602082019050919050565b600060208201905081810360008301526114688161142c565b9050919050565b7f566f746520616c72656164792072657665616c65640000000000000000000000600082015250565b60006114a5601583610e30565b91506114b08261146f565b602082019050919050565b600060208201905081810360008301526114d481611498565b9050919050565b60006114e7838561139f565b93506114f4838584610fb9565b82840190509392505050565b600061150c8286611388565b60018201915061151d8284866114db565b9150819050949350505050565b7f496e76616c696420766f7465206f72206b6579776f7264000000000000000000600082015250565b6000611560601783610e30565b915061156b8261152a565b602082019050919050565b6000602082019050818103600083015261158f81611553565b9050919050565b7f4e487b7100000000000000000000000000000000000000000000000000000000600052601160045260246000fd5b60006115d082610cb9565b91507fffffffffffffffffffffffffffffffffffffffffffffffffffffffffffffffff820361160257611601611596565b5b60018201905091905056fea2646970667358221220eaf3e8c33424745e56ad3fafc2d259cfda9d9bc7209a8b0630d3bd4dd537e1a064736f6c634300081b0033",
  "linkReferences": {},
  "deployedLinkReferences": {}
}